{
  "abi": [
    {
      "inputs": [
        {
          "internalType": "address",
          "name": "_direccionUSDC",
          "type": "address"
        }
      ],
      "stateMutability": "nonpayable",
      "type": "constructor"
    },
    {
      "inputs": [],
      "name": "contadorTrabajos",
      "outputs": [
        {
          "internalType": "uint256",
          "name": "",
          "type": "uint256"
        }
      ],
      "stateMutability": "view",
      "type": "function"
    },
    {
      "inputs": [
        {
          "internalType": "address",
          "name": "_contratista",
          "type": "address"
        },
        {
          "internalType": "uint256",
          "name": "_monto",
          "type": "uint256"
        }
      ],
      "name": "crearTrabajo",
      "outputs": [],
      "stateMutability": "nonpayable",
      "type": "function"
    },
    {
      "inputs": [
        {
          "internalType": "uint256",
          "name": "_idTrabajo",
          "type": "uint256"
        }
      ],
      "name": "finalizarTrabajo",
      "outputs": [],
      "stateMutability": "nonpayable",
      "type": "function"
    },
    {
      "inputs": [],
      "name": "monedaStable",
      "outputs": [
        {
          "internalType": "contract IERC20",
          "name": "",
          "type": "address"
        }
      ],
      "stateMutability": "view",
      "type": "function"
    },
    {
      "inputs": [
        {
          "internalType": "uint256",
          "name": "",
          "type": "uint256"
        }
      ],
      "name": "trabajos",
      "outputs": [
        {
          "internalType": "uint256",
          "name": "id",
          "type": "uint256"
        },
        {
          "internalType": "address",
          "name": "productor",
          "type": "address"
        },
        {
          "internalType": "address",
          "name": "contratista",
          "type": "address"
        },
        {
          "internalType": "uint256",
          "name": "monto",
          "type": "uint256"
        },
        {
          "internalType": "enum AgrocilitiesEscrowUSDC.Estado",
          "name": "estado",
          "type": "uint8"
        }
      ],
      "stateMutability": "view",
      "type": "function"
    }
  ],
  "devdoc": {
    "kind": "dev",
    "methods": {},
    "version": 1
  },
  "evm": {
    "assembly": "    /* \"AgroHectareas.sol\":336:2671  contract AgrocilitiesEscrowUSDC {... */\n  mstore(0x40, 0x80)\n    /* \"AgroHectareas.sol\":871:961  constructor(address _direccionUSDC) {... */\n  callvalue\n  dup1\n  iszero\n  tag_1\n  jumpi\n  0x00\n  dup1\n  revert\ntag_1:\n  pop\n  mload(0x40)\n  sub(codesize, bytecodeSize)\n  dup1\n  bytecodeSize\n  dup4\n  codecopy\n  dup2\n  add\n  0x40\n  dup2\n  swap1\n  mstore\n  tag_2\n  swap2\n  tag_3\n  jump\t// in\ntag_2:\n    /* \"AgroHectareas.sol\":917:929  monedaStable */\n  0x02\n    /* \"AgroHectareas.sol\":917:954  monedaStable = IERC20(_direccionUSDC) */\n  dup1\n  sload\n  not(sub(shl(0xa0, 0x01), 0x01))\n  and\n  sub(shl(0xa0, 0x01), 0x01)\n  swap3\n  swap1\n  swap3\n  and\n  swap2\n  swap1\n  swap2\n  or\n  swap1\n  sstore\n    /* \"AgroHectareas.sol\":336:2671  contract AgrocilitiesEscrowUSDC {... */\n  jump(tag_7)\n    /* \"#utility.yul\":14:304   */\ntag_3:\n    /* \"#utility.yul\":84:90   */\n  0x00\n    /* \"#utility.yul\":137:139   */\n  0x20\n    /* \"#utility.yul\":125:134   */\n  dup3\n    /* \"#utility.yul\":116:123   */\n  dup5\n    /* \"#utility.yul\":112:135   */\n  sub\n    /* \"#utility.yul\":108:140   */\n  slt\n    /* \"#utility.yul\":105:157   */\n  iszero\n  tag_9\n  jumpi\n    /* \"#utility.yul\":153:154   */\n  0x00\n    /* \"#utility.yul\":150:151   */\n  dup1\n    /* \"#utility.yul\":143:155   */\n  revert\n    /* \"#utility.yul\":105:157   */\ntag_9:\n    /* \"#utility.yul\":179:195   */\n  dup2\n  mload\n  sub(shl(0xa0, 0x01), 0x01)\n    /* \"#utility.yul\":224:255   */\n  dup2\n  and\n    /* \"#utility.yul\":214:256   */\n  dup2\n  eq\n    /* \"#utility.yul\":204:274   */\n  tag_10\n  jumpi\n    /* \"#utility.yul\":270:271   */\n  0x00\n    /* \"#utility.yul\":267:268   */\n  dup1\n    /* \"#utility.yul\":260:272   */\n  revert\n    /* \"#utility.yul\":204:274   */\ntag_10:\n    /* \"#utility.yul\":293:298   */\n  swap4\n    /* \"#utility.yul\":14:304   */\n  swap3\n  pop\n  pop\n  pop\n  jump\t// out\ntag_7:\n    /* \"AgroHectareas.sol\":336:2671  contract AgrocilitiesEscrowUSDC {... */\n  dataSize(sub_0)\n  dup1\n  dataOffset(sub_0)\n  0x00\n  codecopy\n  0x00\n  return\nstop\n\nsub_0: assembly {\n        /* \"AgroHectareas.sol\":336:2671  contract AgrocilitiesEscrowUSDC {... */\n      mstore(0x40, 0x80)\n      callvalue\n      dup1\n      iszero\n      tag_1\n      jumpi\n      0x00\n      dup1\n      revert\n    tag_1:\n      pop\n      jumpi(tag_2, lt(calldatasize, 0x04))\n      shr(0xe0, calldataload(0x00))\n      dup1\n      0x718860f4\n      gt\n      tag_8\n      jumpi\n      dup1\n      0x718860f4\n      eq\n      tag_5\n      jumpi\n      dup1\n      0x8fea408e\n      eq\n      tag_6\n      jumpi\n      dup1\n      0xc2f02816\n      eq\n      tag_7\n      jumpi\n      0x00\n      dup1\n      revert\n    tag_8:\n      dup1\n      0x5d6e7cb7\n      eq\n      tag_3\n      jumpi\n      dup1\n      0x61124159\n      eq\n      tag_4\n      jumpi\n    tag_2:\n      0x00\n      dup1\n      revert\n        /* \"AgroHectareas.sol\":584:615  uint256 public contadorTrabajos */\n    tag_3:\n      tag_9\n      sload(0x00)\n      dup2\n      jump\n    tag_9:\n      mload(0x40)\n        /* \"#utility.yul\":160:185   */\n      swap1\n      dup2\n      mstore\n        /* \"#utility.yul\":148:150   */\n      0x20\n        /* \"#utility.yul\":133:151   */\n      add\n        /* \"AgroHectareas.sol\":584:615  uint256 public contadorTrabajos */\n    tag_11:\n      mload(0x40)\n      dup1\n      swap2\n      sub\n      swap1\n      return\n        /* \"AgroHectareas.sol\":2095:2669  function finalizarTrabajo(uint256 _idTrabajo) public {... */\n    tag_4:\n      tag_13\n      tag_14\n      calldatasize\n      0x04\n      tag_15\n      jump\t// in\n    tag_14:\n      tag_16\n      jump\t// in\n    tag_13:\n      stop\n        /* \"AgroHectareas.sol\":621:664  mapping(uint256 => Trabajo) public trabajos */\n    tag_5:\n      tag_17\n      tag_18\n      calldatasize\n      0x04\n      tag_15\n      jump\t// in\n    tag_18:\n      0x01\n      0x20\n      dup2\n      swap1\n      mstore\n      0x00\n      swap2\n      dup3\n      mstore\n      0x40\n      swap1\n      swap2\n      keccak256\n      dup1\n      sload\n      swap2\n      dup2\n      add\n      sload\n      0x02\n      dup3\n      add\n      sload\n      0x03\n      dup4\n      add\n      sload\n      0x04\n      swap1\n      swap4\n      add\n      sload\n      sub(shl(0xa0, 0x01), 0x01)\n      swap3\n      dup4\n      and\n      swap4\n      swap2\n      swap1\n      swap3\n      and\n      swap2\n      0xff\n      and\n      dup6\n      jump\n    tag_17:\n      mload(0x40)\n      tag_11\n      swap6\n      swap5\n      swap4\n      swap3\n      swap2\n      swap1\n      tag_21\n      jump\t// in\n        /* \"AgroHectareas.sol\":762:788  IERC20 public monedaStable */\n    tag_6:\n      sload(0x02)\n      tag_22\n      swap1\n      sub(shl(0xa0, 0x01), 0x01)\n      and\n      dup2\n      jump\n    tag_22:\n      mload(0x40)\n      sub(shl(0xa0, 0x01), 0x01)\n        /* \"#utility.yul\":1397:1452   */\n      swap1\n      swap2\n      and\n        /* \"#utility.yul\":1379:1453   */\n      dup2\n      mstore\n        /* \"#utility.yul\":1367:1369   */\n      0x20\n        /* \"#utility.yul\":1352:1370   */\n      add\n        /* \"AgroHectareas.sol\":762:788  IERC20 public monedaStable */\n      tag_11\n        /* \"#utility.yul\":1220:1459   */\n      jump\n        /* \"AgroHectareas.sol\":1174:1864  function crearTrabajo(address _contratista, uint256 _monto) public {... */\n    tag_7:\n      tag_13\n      tag_27\n      calldatasize\n      0x04\n      tag_28\n      jump\t// in\n    tag_27:\n      tag_29\n      jump\t// in\n        /* \"AgroHectareas.sol\":2095:2669  function finalizarTrabajo(uint256 _idTrabajo) public {... */\n    tag_16:\n        /* \"AgroHectareas.sol\":2158:2181  Trabajo storage trabajo */\n      0x00\n        /* \"AgroHectareas.sol\":2184:2204  trabajos[_idTrabajo] */\n      dup2\n      dup2\n      mstore\n        /* \"AgroHectareas.sol\":2184:2192  trabajos */\n      0x01\n        /* \"AgroHectareas.sol\":2184:2204  trabajos[_idTrabajo] */\n      0x20\n      mstore\n      0x40\n      dup2\n      keccak256\n      swap1\n        /* \"AgroHectareas.sol\":2231:2245  trabajo.estado */\n      0x04\n      dup3\n      add\n      sload\n      0xff\n      and\n        /* \"AgroHectareas.sol\":2231:2265  trabajo.estado == Estado.PENDIENTE */\n      0x02\n      dup2\n      gt\n      iszero\n      tag_35\n      jumpi\n      tag_35\n      tag_33\n      jump\t// in\n    tag_35:\n      eq\n        /* \"AgroHectareas.sol\":2223:2301  require(trabajo.estado == Estado.PENDIENTE, \"El trabajo ya no esta pendiente\") */\n      tag_36\n      jumpi\n      mload(0x40)\n      shl(0xe5, 0x461bcd)\n      dup2\n      mstore\n        /* \"#utility.yul\":2048:2050   */\n      0x20\n        /* \"AgroHectareas.sol\":2223:2301  require(trabajo.estado == Estado.PENDIENTE, \"El trabajo ya no esta pendiente\") */\n      0x04\n      dup3\n      add\n        /* \"#utility.yul\":2030:2051   */\n      mstore\n        /* \"#utility.yul\":2087:2089   */\n      0x1f\n        /* \"#utility.yul\":2067:2085   */\n      0x24\n      dup3\n      add\n        /* \"#utility.yul\":2060:2090   */\n      mstore\n        /* \"#utility.yul\":2126:2159   */\n      0x456c2074726162616a6f207961206e6f20657374612070656e6469656e746500\n        /* \"#utility.yul\":2106:2124   */\n      0x44\n      dup3\n      add\n        /* \"#utility.yul\":2099:2160   */\n      mstore\n        /* \"#utility.yul\":2177:2195   */\n      0x64\n      add\n        /* \"AgroHectareas.sol\":2223:2301  require(trabajo.estado == Estado.PENDIENTE, \"El trabajo ya no esta pendiente\") */\n    tag_37:\n      mload(0x40)\n      dup1\n      swap2\n      sub\n      swap1\n      revert\n    tag_36:\n        /* \"AgroHectareas.sol\":2333:2350  trabajo.productor */\n      0x01\n      dup2\n      add\n      sload\n      sub(shl(0xa0, 0x01), 0x01)\n      and\n        /* \"AgroHectareas.sol\":2319:2329  msg.sender */\n      caller\n        /* \"AgroHectareas.sol\":2319:2350  msg.sender == trabajo.productor */\n      eq\n        /* \"AgroHectareas.sol\":2311:2394  require(msg.sender == trabajo.productor, \"Solo el productor puede liberar el pago\") */\n      tag_39\n      jumpi\n      mload(0x40)\n      shl(0xe5, 0x461bcd)\n      dup2\n      mstore\n        /* \"#utility.yul\":2408:2410   */\n      0x20\n        /* \"AgroHectareas.sol\":2311:2394  require(msg.sender == trabajo.productor, \"Solo el productor puede liberar el pago\") */\n      0x04\n      dup3\n      add\n        /* \"#utility.yul\":2390:2411   */\n      mstore\n        /* \"#utility.yul\":2447:2449   */\n      0x27\n        /* \"#utility.yul\":2427:2445   */\n      0x24\n      dup3\n      add\n        /* \"#utility.yul\":2420:2450   */\n      mstore\n        /* \"#utility.yul\":2486:2520   */\n      0x536f6c6f20656c2070726f647563746f72207075656465206c69626572617220\n        /* \"#utility.yul\":2466:2484   */\n      0x44\n      dup3\n      add\n        /* \"#utility.yul\":2459:2521   */\n      mstore\n        /* \"#utility.yul\":2557:2566   */\n      0x656c207061676f00000000000000000000000000000000000000000000000000\n        /* \"#utility.yul\":2537:2555   */\n      0x64\n      dup3\n      add\n        /* \"#utility.yul\":2530:2567   */\n      mstore\n        /* \"#utility.yul\":2584:2603   */\n      0x84\n      add\n        /* \"AgroHectareas.sol\":2311:2394  require(msg.sender == trabajo.productor, \"Solo el productor puede liberar el pago\") */\n      tag_37\n        /* \"#utility.yul\":2206:2609   */\n      jump\n        /* \"AgroHectareas.sol\":2311:2394  require(msg.sender == trabajo.productor, \"Solo el productor puede liberar el pago\") */\n    tag_39:\n        /* \"AgroHectareas.sol\":2413:2427  trabajo.estado */\n      0x04\n      dup2\n      dup2\n      add\n        /* \"AgroHectareas.sol\":2413:2447  trabajo.estado = Estado.FINALIZADO */\n      dup1\n      sload\n      not(0xff)\n      and\n        /* \"AgroHectareas.sol\":2430:2447  Estado.FINALIZADO */\n      0x01\n        /* \"AgroHectareas.sol\":2413:2447  trabajo.estado = Estado.FINALIZADO */\n      or\n      swap1\n      sstore\n        /* \"AgroHectareas.sol\":2565:2577  monedaStable */\n      0x02\n      dup1\n      sload\n        /* \"AgroHectareas.sol\":2587:2606  trabajo.contratista */\n      swap1\n      dup4\n      add\n      sload\n        /* \"AgroHectareas.sol\":2608:2621  trabajo.monto */\n      0x03\n      dup5\n      add\n      sload\n        /* \"AgroHectareas.sol\":2565:2622  monedaStable.transfer(trabajo.contratista, trabajo.monto) */\n      mload(0x40)\n      shl(0xe0, 0xa9059cbb)\n      dup2\n      mstore\n      sub(shl(0xa0, 0x01), 0x01)\n        /* \"AgroHectareas.sol\":2587:2606  trabajo.contratista */\n      swap3\n      dup4\n      and\n        /* \"AgroHectareas.sol\":2565:2622  monedaStable.transfer(trabajo.contratista, trabajo.monto) */\n      swap5\n      dup2\n      add\n        /* \"#utility.yul\":2788:2862   */\n      swap5\n      swap1\n      swap5\n      mstore\n        /* \"#utility.yul\":2878:2896   */\n      0x24\n      dup5\n      add\n        /* \"#utility.yul\":2871:2905   */\n      mstore\n        /* \"AgroHectareas.sol\":2565:2577  monedaStable */\n      and\n      swap1\n        /* \"AgroHectareas.sol\":2565:2586  monedaStable.transfer */\n      0xa9059cbb\n      swap1\n        /* \"#utility.yul\":2761:2779   */\n      0x44\n      add\n        /* \"AgroHectareas.sol\":2565:2622  monedaStable.transfer(trabajo.contratista, trabajo.monto) */\n      0x20\n      mload(0x40)\n      dup1\n      dup4\n      sub\n      dup2\n      0x00\n      dup8\n      gas\n      call\n      iszero\n      dup1\n      iszero\n      tag_47\n      jumpi\n      returndatasize\n      0x00\n      dup1\n      returndatacopy\n      revert(0x00, returndatasize)\n    tag_47:\n      pop\n      pop\n      pop\n      pop\n      mload(0x40)\n      returndatasize\n      not(0x1f)\n      0x1f\n      dup3\n      add\n      and\n      dup3\n      add\n      dup1\n      0x40\n      mstore\n      pop\n      dup2\n      add\n      swap1\n      tag_48\n      swap2\n      swap1\n      tag_49\n      jump\t// in\n    tag_48:\n        /* \"AgroHectareas.sol\":2557:2662  require(monedaStable.transfer(trabajo.contratista, trabajo.monto), \"Fallo al enviar USDC al contratista\") */\n      tag_50\n      jumpi\n      mload(0x40)\n      shl(0xe5, 0x461bcd)\n      dup2\n      mstore\n        /* \"#utility.yul\":3400:3402   */\n      0x20\n        /* \"AgroHectareas.sol\":2557:2662  require(monedaStable.transfer(trabajo.contratista, trabajo.monto), \"Fallo al enviar USDC al contratista\") */\n      0x04\n      dup3\n      add\n        /* \"#utility.yul\":3382:3403   */\n      mstore\n        /* \"#utility.yul\":3439:3441   */\n      0x23\n        /* \"#utility.yul\":3419:3437   */\n      0x24\n      dup3\n      add\n        /* \"#utility.yul\":3412:3442   */\n      mstore\n        /* \"#utility.yul\":3478:3512   */\n      0x46616c6c6f20616c20656e76696172205553444320616c20636f6e7472617469\n        /* \"#utility.yul\":3458:3476   */\n      0x44\n      dup3\n      add\n        /* \"#utility.yul\":3451:3513   */\n      mstore\n      shl(0xe8, 0x737461)\n        /* \"#utility.yul\":3529:3547   */\n      0x64\n      dup3\n      add\n        /* \"#utility.yul\":3522:3555   */\n      mstore\n        /* \"#utility.yul\":3572:3591   */\n      0x84\n      add\n        /* \"AgroHectareas.sol\":2557:2662  require(monedaStable.transfer(trabajo.contratista, trabajo.monto), \"Fallo al enviar USDC al contratista\") */\n      tag_37\n        /* \"#utility.yul\":3198:3597   */\n      jump\n        /* \"AgroHectareas.sol\":2557:2662  require(monedaStable.transfer(trabajo.contratista, trabajo.monto), \"Fallo al enviar USDC al contratista\") */\n    tag_50:\n        /* \"AgroHectareas.sol\":2148:2669  {... */\n      pop\n        /* \"AgroHectareas.sol\":2095:2669  function finalizarTrabajo(uint256 _idTrabajo) public {... */\n      pop\n      jump\t// out\n        /* \"AgroHectareas.sol\":1174:1864  function crearTrabajo(address _contratista, uint256 _monto) public {... */\n    tag_29:\n        /* \"AgroHectareas.sol\":1268:1269  0 */\n      0x00\n        /* \"AgroHectareas.sol\":1259:1265  _monto */\n      dup2\n        /* \"AgroHectareas.sol\":1259:1269  _monto > 0 */\n      gt\n        /* \"AgroHectareas.sol\":1251:1300  require(_monto > 0, \"El pago debe ser mayor a 0\") */\n      tag_54\n      jumpi\n      mload(0x40)\n      shl(0xe5, 0x461bcd)\n      dup2\n      mstore\n        /* \"#utility.yul\":3804:3806   */\n      0x20\n        /* \"AgroHectareas.sol\":1251:1300  require(_monto > 0, \"El pago debe ser mayor a 0\") */\n      0x04\n      dup3\n      add\n        /* \"#utility.yul\":3786:3807   */\n      mstore\n        /* \"#utility.yul\":3843:3845   */\n      0x1a\n        /* \"#utility.yul\":3823:3841   */\n      0x24\n      dup3\n      add\n        /* \"#utility.yul\":3816:3846   */\n      mstore\n        /* \"#utility.yul\":3882:3910   */\n      0x456c207061676f206465626520736572206d61796f7220612030000000000000\n        /* \"#utility.yul\":3862:3880   */\n      0x44\n      dup3\n      add\n        /* \"#utility.yul\":3855:3911   */\n      mstore\n        /* \"#utility.yul\":3928:3946   */\n      0x64\n      add\n        /* \"AgroHectareas.sol\":1251:1300  require(_monto > 0, \"El pago debe ser mayor a 0\") */\n      tag_37\n        /* \"#utility.yul\":3602:3952   */\n      jump\n        /* \"AgroHectareas.sol\":1251:1300  require(_monto > 0, \"El pago debe ser mayor a 0\") */\n    tag_54:\n        /* \"AgroHectareas.sol\":1319:1335  contadorTrabajos */\n      0x00\n        /* \"AgroHectareas.sol\":1319:1337  contadorTrabajos++ */\n      dup1\n      sload\n      swap1\n        /* \"AgroHectareas.sol\":1319:1335  contadorTrabajos */\n      dup1\n        /* \"AgroHectareas.sol\":1319:1337  contadorTrabajos++ */\n      tag_57\n      dup4\n      tag_58\n      jump\t// in\n    tag_57:\n      swap2\n      swap1\n      pop\n      sstore\n      pop\n        /* \"AgroHectareas.sol\":1385:1577  Trabajo({... */\n      mload(0x40)\n      dup1\n      0xa0\n      add\n      0x40\n      mstore\n      dup1\n        /* \"AgroHectareas.sol\":1411:1427  contadorTrabajos */\n      sload(0x00)\n        /* \"AgroHectareas.sol\":1385:1577  Trabajo({... */\n      dup2\n      mstore\n      0x20\n      add\n        /* \"AgroHectareas.sol\":1452:1462  msg.sender */\n      caller\n      sub(shl(0xa0, 0x01), 0x01)\n        /* \"AgroHectareas.sol\":1385:1577  Trabajo({... */\n      and\n      dup2\n      mstore\n      0x20\n      add\n        /* \"AgroHectareas.sol\":1489:1501  _contratista */\n      dup4\n      sub(shl(0xa0, 0x01), 0x01)\n        /* \"AgroHectareas.sol\":1385:1577  Trabajo({... */\n      and\n      dup2\n      mstore\n      0x20\n      add\n        /* \"AgroHectareas.sol\":1522:1528  _monto */\n      dup3\n        /* \"AgroHectareas.sol\":1385:1577  Trabajo({... */\n      dup2\n      mstore\n      0x20\n      add\n        /* \"AgroHectareas.sol\":1550:1566  Estado.PENDIENTE */\n      0x00\n        /* \"AgroHectareas.sol\":1385:1577  Trabajo({... */\n      0x02\n      dup2\n      gt\n      iszero\n      tag_60\n      jumpi\n      tag_60\n      tag_33\n      jump\t// in\n    tag_60:\n      swap1\n      mstore\n        /* \"AgroHectareas.sol\":1356:1382  trabajos[contadorTrabajos] */\n      0x00\n        /* \"AgroHectareas.sol\":1365:1381  contadorTrabajos */\n      dup1\n      sload\n        /* \"AgroHectareas.sol\":1356:1382  trabajos[contadorTrabajos] */\n      dup2\n      mstore\n        /* \"AgroHectareas.sol\":1356:1364  trabajos */\n      0x01\n        /* \"AgroHectareas.sol\":1356:1382  trabajos[contadorTrabajos] */\n      0x20\n      dup2\n      dup2\n      mstore\n      0x40\n      swap3\n      dup4\n      swap1\n      keccak256\n        /* \"AgroHectareas.sol\":1356:1577  trabajos[contadorTrabajos] = Trabajo({... */\n      dup5\n      mload\n      dup2\n      sstore\n      swap1\n      dup5\n      add\n      mload\n      dup2\n      dup4\n      add\n      dup1\n      sload\n      sub(shl(0xa0, 0x01), 0x01)\n      swap3\n      dup4\n      and\n      0xffffffffffffffffffffffff0000000000000000000000000000000000000000\n      swap2\n      dup3\n      and\n      or\n      swap1\n      swap2\n      sstore\n      swap4\n      dup6\n      add\n      mload\n      0x02\n      dup1\n      dup5\n      add\n      dup1\n      sload\n      swap3\n      swap1\n      swap4\n      and\n      swap2\n      swap1\n      swap6\n      and\n      or\n      swap1\n      sstore\n      0x60\n      dup5\n      add\n      mload\n      0x03\n      dup3\n      add\n      sstore\n      0x80\n      dup5\n      add\n      mload\n      0x04\n      dup3\n      add\n      dup1\n      sload\n        /* \"AgroHectareas.sol\":1356:1382  trabajos[contadorTrabajos] */\n      swap3\n      swap5\n        /* \"AgroHectareas.sol\":1356:1577  trabajos[contadorTrabajos] = Trabajo({... */\n      swap2\n      swap4\n      swap1\n      swap3\n      not(0xff)\n      and\n      swap2\n      dup5\n      swap1\n      dup2\n      gt\n      iszero\n      tag_62\n      jumpi\n      tag_62\n      tag_33\n      jump\t// in\n    tag_62:\n      mul\n      or\n      swap1\n      sstore\n      pop\n      pop\n        /* \"AgroHectareas.sol\":1762:1774  monedaStable */\n      sload(0x02)\n        /* \"AgroHectareas.sol\":1762:1822  monedaStable.transferFrom(msg.sender, address(this), _monto) */\n      mload(0x40)\n      shl(0xe0, 0x23b872dd)\n      dup2\n      mstore\n        /* \"AgroHectareas.sol\":1788:1798  msg.sender */\n      caller\n        /* \"AgroHectareas.sol\":1762:1822  monedaStable.transferFrom(msg.sender, address(this), _monto) */\n      0x04\n      dup3\n      add\n        /* \"#utility.yul\":4457:4491   */\n      mstore\n        /* \"AgroHectareas.sol\":1808:1812  this */\n      address\n        /* \"#utility.yul\":4507:4525   */\n      0x24\n      dup3\n      add\n        /* \"#utility.yul\":4500:4543   */\n      mstore\n        /* \"#utility.yul\":4559:4577   */\n      0x44\n      dup2\n      add\n        /* \"#utility.yul\":4552:4586   */\n      dup5\n      swap1\n      mstore\n      sub(shl(0xa0, 0x01), 0x01)\n        /* \"AgroHectareas.sol\":1762:1774  monedaStable */\n      swap1\n      swap2\n      and\n      swap2\n      pop\n        /* \"AgroHectareas.sol\":1762:1787  monedaStable.transferFrom */\n      0x23b872dd\n      swap1\n        /* \"#utility.yul\":4369:4387   */\n      0x64\n      add\n        /* \"AgroHectareas.sol\":1762:1822  monedaStable.transferFrom(msg.sender, address(this), _monto) */\n      0x20\n      mload(0x40)\n      dup1\n      dup4\n      sub\n      dup2\n      0x00\n      dup8\n      gas\n      call\n      iszero\n      dup1\n      iszero\n      tag_66\n      jumpi\n      returndatasize\n      0x00\n      dup1\n      returndatacopy\n      revert(0x00, returndatasize)\n    tag_66:\n      pop\n      pop\n      pop\n      pop\n      mload(0x40)\n      returndatasize\n      not(0x1f)\n      0x1f\n      dup3\n      add\n      and\n      dup3\n      add\n      dup1\n      0x40\n      mstore\n      pop\n      dup2\n      add\n      swap1\n      tag_67\n      swap2\n      swap1\n      tag_49\n      jump\t// in\n    tag_67:\n        /* \"AgroHectareas.sol\":1754:1857  require(monedaStable.transferFrom(msg.sender, address(this), _monto), \"Fallo la transferencia de USDC\") */\n      tag_50\n      jumpi\n      mload(0x40)\n      shl(0xe5, 0x461bcd)\n      dup2\n      mstore\n        /* \"#utility.yul\":4799:4801   */\n      0x20\n        /* \"AgroHectareas.sol\":1754:1857  require(monedaStable.transferFrom(msg.sender, address(this), _monto), \"Fallo la transferencia de USDC\") */\n      0x04\n      dup3\n      add\n        /* \"#utility.yul\":4781:4802   */\n      mstore\n        /* \"#utility.yul\":4838:4840   */\n      0x1e\n        /* \"#utility.yul\":4818:4836   */\n      0x24\n      dup3\n      add\n        /* \"#utility.yul\":4811:4841   */\n      mstore\n        /* \"#utility.yul\":4877:4909   */\n      0x46616c6c6f206c61207472616e73666572656e63696120646520555344430000\n        /* \"#utility.yul\":4857:4875   */\n      0x44\n      dup3\n      add\n        /* \"#utility.yul\":4850:4910   */\n      mstore\n        /* \"#utility.yul\":4927:4945   */\n      0x64\n      add\n        /* \"AgroHectareas.sol\":1754:1857  require(monedaStable.transferFrom(msg.sender, address(this), _monto), \"Fallo la transferencia de USDC\") */\n      tag_37\n        /* \"#utility.yul\":4597:4951   */\n      jump\n        /* \"#utility.yul\":196:376   */\n    tag_15:\n        /* \"#utility.yul\":255:261   */\n      0x00\n        /* \"#utility.yul\":308:310   */\n      0x20\n        /* \"#utility.yul\":296:305   */\n      dup3\n        /* \"#utility.yul\":287:294   */\n      dup5\n        /* \"#utility.yul\":283:306   */\n      sub\n        /* \"#utility.yul\":279:311   */\n      slt\n        /* \"#utility.yul\":276:328   */\n      iszero\n      tag_74\n      jumpi\n        /* \"#utility.yul\":324:325   */\n      0x00\n        /* \"#utility.yul\":321:322   */\n      dup1\n        /* \"#utility.yul\":314:326   */\n      revert\n        /* \"#utility.yul\":276:328   */\n    tag_74:\n      pop\n        /* \"#utility.yul\":347:370   */\n      calldataload\n      swap2\n        /* \"#utility.yul\":196:376   */\n      swap1\n      pop\n      jump\t// out\n        /* \"#utility.yul\":381:508   */\n    tag_33:\n        /* \"#utility.yul\":442:452   */\n      0x4e487b71\n        /* \"#utility.yul\":437:440   */\n      0xe0\n        /* \"#utility.yul\":433:453   */\n      shl\n        /* \"#utility.yul\":430:431   */\n      0x00\n        /* \"#utility.yul\":423:454   */\n      mstore\n        /* \"#utility.yul\":473:477   */\n      0x21\n        /* \"#utility.yul\":470:471   */\n      0x04\n        /* \"#utility.yul\":463:478   */\n      mstore\n        /* \"#utility.yul\":497:501   */\n      0x24\n        /* \"#utility.yul\":494:495   */\n      0x00\n        /* \"#utility.yul\":487:502   */\n      revert\n        /* \"#utility.yul\":513:1215   */\n    tag_21:\n        /* \"#utility.yul\":779:804   */\n      dup6\n      dup2\n      mstore\n      sub(shl(0xa0, 0x01), 0x01)\n        /* \"#utility.yul\":901:916   */\n      dup6\n      dup2\n      and\n        /* \"#utility.yul\":896:898   */\n      0x20\n        /* \"#utility.yul\":881:899   */\n      dup4\n      add\n        /* \"#utility.yul\":874:917   */\n      mstore\n        /* \"#utility.yul\":953:968   */\n      dup5\n      and\n        /* \"#utility.yul\":948:950   */\n      0x40\n        /* \"#utility.yul\":933:951   */\n      dup3\n      add\n        /* \"#utility.yul\":926:969   */\n      mstore\n        /* \"#utility.yul\":1000:1002   */\n      0x60\n        /* \"#utility.yul\":985:1003   */\n      dup2\n      add\n        /* \"#utility.yul\":978:1012   */\n      dup4\n      swap1\n      mstore\n        /* \"#utility.yul\":766:769   */\n      0xa0\n        /* \"#utility.yul\":751:770   */\n      dup2\n      add\n        /* \"#utility.yul\":1042:1043   */\n      0x03\n        /* \"#utility.yul\":1031:1044   */\n      dup4\n      lt\n        /* \"#utility.yul\":1021:1165   */\n      tag_77\n      jumpi\n        /* \"#utility.yul\":1087:1097   */\n      0x4e487b71\n        /* \"#utility.yul\":1082:1085   */\n      0xe0\n        /* \"#utility.yul\":1078:1098   */\n      shl\n        /* \"#utility.yul\":1075:1076   */\n      0x00\n        /* \"#utility.yul\":1068:1099   */\n      mstore\n        /* \"#utility.yul\":1122:1126   */\n      0x21\n        /* \"#utility.yul\":1119:1120   */\n      0x04\n        /* \"#utility.yul\":1112:1127   */\n      mstore\n        /* \"#utility.yul\":1150:1154   */\n      0x24\n        /* \"#utility.yul\":1147:1148   */\n      0x00\n        /* \"#utility.yul\":1140:1155   */\n      revert\n        /* \"#utility.yul\":1021:1165   */\n    tag_77:\n        /* \"#utility.yul\":1202:1208   */\n      dup3\n        /* \"#utility.yul\":1196:1199   */\n      0x80\n        /* \"#utility.yul\":1185:1194   */\n      dup4\n        /* \"#utility.yul\":1181:1200   */\n      add\n        /* \"#utility.yul\":1174:1209   */\n      mstore\n        /* \"#utility.yul\":513:1215   */\n      swap7\n      swap6\n      pop\n      pop\n      pop\n      pop\n      pop\n      pop\n      jump\t// out\n        /* \"#utility.yul\":1464:1841   */\n    tag_28:\n        /* \"#utility.yul\":1532:1538   */\n      0x00\n        /* \"#utility.yul\":1540:1546   */\n      dup1\n        /* \"#utility.yul\":1593:1595   */\n      0x40\n        /* \"#utility.yul\":1581:1590   */\n      dup4\n        /* \"#utility.yul\":1572:1579   */\n      dup6\n        /* \"#utility.yul\":1568:1591   */\n      sub\n        /* \"#utility.yul\":1564:1596   */\n      slt\n        /* \"#utility.yul\":1561:1613   */\n      iszero\n      tag_80\n      jumpi\n        /* \"#utility.yul\":1609:1610   */\n      0x00\n        /* \"#utility.yul\":1606:1607   */\n      dup1\n        /* \"#utility.yul\":1599:1611   */\n      revert\n        /* \"#utility.yul\":1561:1613   */\n    tag_80:\n        /* \"#utility.yul\":1648:1657   */\n      dup3\n        /* \"#utility.yul\":1635:1658   */\n      calldataload\n      sub(shl(0xa0, 0x01), 0x01)\n        /* \"#utility.yul\":1691:1696   */\n      dup2\n        /* \"#utility.yul\":1687:1741   */\n      and\n        /* \"#utility.yul\":1680:1685   */\n      dup2\n        /* \"#utility.yul\":1677:1742   */\n      eq\n        /* \"#utility.yul\":1667:1760   */\n      tag_81\n      jumpi\n        /* \"#utility.yul\":1756:1757   */\n      0x00\n        /* \"#utility.yul\":1753:1754   */\n      dup1\n        /* \"#utility.yul\":1746:1758   */\n      revert\n        /* \"#utility.yul\":1667:1760   */\n    tag_81:\n        /* \"#utility.yul\":1779:1784   */\n      swap5\n        /* \"#utility.yul\":1831:1833   */\n      0x20\n        /* \"#utility.yul\":1816:1834   */\n      swap4\n      swap1\n      swap4\n      add\n        /* \"#utility.yul\":1803:1835   */\n      calldataload\n      swap4\n      pop\n      pop\n      pop\n        /* \"#utility.yul\":1464:1841   */\n      jump\t// out\n        /* \"#utility.yul\":2916:3193   */\n    tag_49:\n        /* \"#utility.yul\":2983:2989   */\n      0x00\n        /* \"#utility.yul\":3036:3038   */\n      0x20\n        /* \"#utility.yul\":3024:3033   */\n      dup3\n        /* \"#utility.yul\":3015:3022   */\n      dup5\n        /* \"#utility.yul\":3011:3034   */\n      sub\n        /* \"#utility.yul\":3007:3039   */\n      slt\n        /* \"#utility.yul\":3004:3056   */\n      iszero\n      tag_86\n      jumpi\n        /* \"#utility.yul\":3052:3053   */\n      0x00\n        /* \"#utility.yul\":3049:3050   */\n      dup1\n        /* \"#utility.yul\":3042:3054   */\n      revert\n        /* \"#utility.yul\":3004:3056   */\n    tag_86:\n        /* \"#utility.yul\":3084:3093   */\n      dup2\n        /* \"#utility.yul\":3078:3094   */\n      mload\n        /* \"#utility.yul\":3137:3142   */\n      dup1\n        /* \"#utility.yul\":3130:3143   */\n      iszero\n        /* \"#utility.yul\":3123:3144   */\n      iszero\n        /* \"#utility.yul\":3116:3121   */\n      dup2\n        /* \"#utility.yul\":3113:3145   */\n      eq\n        /* \"#utility.yul\":3103:3163   */\n      tag_87\n      jumpi\n        /* \"#utility.yul\":3159:3160   */\n      0x00\n        /* \"#utility.yul\":3156:3157   */\n      dup1\n        /* \"#utility.yul\":3149:3161   */\n      revert\n        /* \"#utility.yul\":3103:3163   */\n    tag_87:\n        /* \"#utility.yul\":3182:3187   */\n      swap4\n        /* \"#utility.yul\":2916:3193   */\n      swap3\n      pop\n      pop\n      pop\n      jump\t// out\n        /* \"#utility.yul\":3957:4189   */\n    tag_58:\n        /* \"#utility.yul\":3996:3999   */\n      0x00\n        /* \"#utility.yul\":4017:4034   */\n      0x01\n      dup3\n      add\n        /* \"#utility.yul\":4014:4154   */\n      tag_91\n      jumpi\n        /* \"#utility.yul\":4076:4086   */\n      0x4e487b71\n        /* \"#utility.yul\":4071:4074   */\n      0xe0\n        /* \"#utility.yul\":4067:4087   */\n      shl\n        /* \"#utility.yul\":4064:4065   */\n      0x00\n        /* \"#utility.yul\":4057:4088   */\n      mstore\n        /* \"#utility.yul\":4111:4115   */\n      0x11\n        /* \"#utility.yul\":4108:4109   */\n      0x04\n        /* \"#utility.yul\":4101:4116   */\n      mstore\n        /* \"#utility.yul\":4139:4143   */\n      0x24\n        /* \"#utility.yul\":4136:4137   */\n      0x00\n        /* \"#utility.yul\":4129:4144   */\n      revert\n        /* \"#utility.yul\":4014:4154   */\n    tag_91:\n      pop\n        /* \"#utility.yul\":4181:4182   */\n      0x01\n        /* \"#utility.yul\":4170:4183   */\n      add\n      swap1\n        /* \"#utility.yul\":3957:4189   */\n      jump\t// out\n\n    auxdata: 0xa26469706673582212207904d667f9a61beb0bb9d8f1c9c6b04f6112dc6cbd3ba546641f554db464d92764736f6c63430008190033\n}\n",
    "bytecode": {
      "linkReferences": {},
      "object": "6080604052348015600e575f80fd5b506040516106dd3803806106dd833981016040819052602b91604f565b600280546001600160a01b0319166001600160a01b0392909216919091179055607a565b5f60208284031215605e575f80fd5b81516001600160a01b03811681146073575f80fd5b9392505050565b610656806100875f395ff3fe608060405234801561000f575f80fd5b5060043610610064575f3560e01c8063718860f41161004d578063718860f4146100985780638fea408e146100f4578063c2f028161461011f575f80fd5b80635d6e7cb7146100685780636112415914610083575b5f80fd5b6100705f5481565b6040519081526020015b60405180910390f35b610096610091366004610525565b610132565b005b6100e36100a6366004610525565b600160208190525f9182526040909120805491810154600282015460038301546004909301546001600160a01b0392831693919092169160ff1685565b60405161007a959493929190610550565b600254610107906001600160a01b031681565b6040516001600160a01b03909116815260200161007a565b61009661012d3660046105a1565b610315565b5f81815260016020526040812090600482015460ff1660028111156101595761015961053c565b146101ab5760405162461bcd60e51b815260206004820152601f60248201527f456c2074726162616a6f207961206e6f20657374612070656e6469656e74650060448201526064015b60405180910390fd5b60018101546001600160a01b0316331461022d5760405162461bcd60e51b815260206004820152602760248201527f536f6c6f20656c2070726f647563746f72207075656465206c6962657261722060448201527f656c207061676f0000000000000000000000000000000000000000000000000060648201526084016101a2565b6004818101805460ff191660011790556002805490830154600384015460405163a9059cbb60e01b81526001600160a01b03928316948101949094526024840152169063a9059cbb906044016020604051808303815f875af1158015610295573d5f803e3d5ffd5b505050506040513d601f19601f820116820180604052508101906102b991906105d6565b6103115760405162461bcd60e51b815260206004820152602360248201527f46616c6c6f20616c20656e76696172205553444320616c20636f6e747261746960448201526273746160e81b60648201526084016101a2565b5050565b5f81116103645760405162461bcd60e51b815260206004820152601a60248201527f456c207061676f206465626520736572206d61796f722061203000000000000060448201526064016101a2565b5f80549080610372836105fc565b91905055506040518060a001604052805f548152602001336001600160a01b03168152602001836001600160a01b031681526020018281526020015f60028111156103bf576103bf61053c565b90525f8054815260016020818152604092839020845181559084015181830180546001600160a01b039283167fffffffffffffffffffffffff0000000000000000000000000000000000000000918216179091559385015160028084018054929093169190951617905560608401516003820155608084015160048201805492949193909260ff191691849081111561045a5761045a61053c565b0217905550506002546040516323b872dd60e01b8152336004820152306024820152604481018490526001600160a01b0390911691506323b872dd906064016020604051808303815f875af11580156104b5573d5f803e3d5ffd5b505050506040513d601f19601f820116820180604052508101906104d991906105d6565b6103115760405162461bcd60e51b815260206004820152601e60248201527f46616c6c6f206c61207472616e73666572656e6369612064652055534443000060448201526064016101a2565b5f60208284031215610535575f80fd5b5035919050565b634e487b7160e01b5f52602160045260245ffd5b8581526001600160a01b038581166020830152841660408201526060810183905260a081016003831061059157634e487b7160e01b5f52602160045260245ffd5b8260808301529695505050505050565b5f80604083850312156105b2575f80fd5b82356001600160a01b03811681146105c8575f80fd5b946020939093013593505050565b5f602082840312156105e6575f80fd5b815180151581146105f5575f80fd5b9392505050565b5f6001820161061957634e487b7160e01b5f52601160045260245ffd5b506001019056fea26469706673582212207904d667f9a61beb0bb9d8f1c9c6b04f6112dc6cbd3ba546641f554db464d92764736f6c63430008190033",
      "opcodes": "PUSH1 0x80 PUSH1 0x40 MSTORE CALLVALUE DUP1 ISZERO PUSH1 0xE JUMPI PUSH0 DUP1 REVERT JUMPDEST POP PUSH1 0x40 MLOAD PUSH2 0x6DD CODESIZE SUB DUP1 PUSH2 0x6DD DUP4 CODECOPY DUP2 ADD PUSH1 0x40 DUP2 SWAP1 MSTORE PUSH1 0x2B SWAP2 PUSH1 0x4F JUMP JUMPDEST PUSH1 0x2 DUP1 SLOAD PUSH1 0x1 PUSH1 0x1 PUSH1 0xA0 SHL SUB NOT AND PUSH1 0x1 PUSH1 0x1 PUSH1 0xA0 SHL SUB SWAP3 SWAP1 SWAP3 AND SWAP2 SWAP1 SWAP2 OR SWAP1 SSTORE PUSH1 0x7A JUMP JUMPDEST PUSH0 PUSH1 0x20 DUP3 DUP5 SUB SLT ISZERO PUSH1 0x5E JUMPI PUSH0 DUP1 REVERT JUMPDEST DUP2 MLOAD PUSH1 0x1 PUSH1 0x1 PUSH1 0xA0 SHL SUB DUP2 AND DUP2 EQ PUSH1 0x73 JUMPI PUSH0 DUP1 REVERT JUMPDEST SWAP4 SWAP3 POP POP POP JUMP JUMPDEST PUSH2 0x656 DUP1 PUSH2 0x87 PUSH0 CODECOPY PUSH0 RETURN INVALID PUSH1 0x80 PUSH1 0x40 MSTORE CALLVALUE DUP1 ISZERO PUSH2 0xF JUMPI PUSH0 DUP1 REVERT JUMPDEST POP PUSH1 0x4 CALLDATASIZE LT PUSH2 0x64 JUMPI PUSH0 CALLDATALOAD PUSH1 0xE0 SHR DUP1 PUSH4 0x718860F4 GT PUSH2 0x4D JUMPI DUP1 PUSH4 0x718860F4 EQ PUSH2 0x98 JUMPI DUP1 PUSH4 0x8FEA408E EQ PUSH2 0xF4 JUMPI DUP1 PUSH4 0xC2F02816 EQ PUSH2 0x11F JUMPI PUSH0 DUP1 REVERT JUMPDEST DUP1 PUSH4 0x5D6E7CB7 EQ PUSH2 0x68 JUMPI DUP1 PUSH4 0x61124159 EQ PUSH2 0x83 JUMPI JUMPDEST PUSH0 DUP1 REVERT JUMPDEST PUSH2 0x70 PUSH0 SLOAD DUP2 JUMP JUMPDEST PUSH1 0x40 MLOAD SWAP1 DUP2 MSTORE PUSH1 0x20 ADD JUMPDEST PUSH1 0x40 MLOAD DUP1 SWAP2 SUB SWAP1 RETURN JUMPDEST PUSH2 0x96 PUSH2 0x91 CALLDATASIZE PUSH1 0x4 PUSH2 0x525 JUMP JUMPDEST PUSH2 0x132 JUMP JUMPDEST STOP JUMPDEST PUSH2 0xE3 PUSH2 0xA6 CALLDATASIZE PUSH1 0x4 PUSH2 0x525 JUMP JUMPDEST PUSH1 0x1 PUSH1 0x20 DUP2 SWAP1 MSTORE PUSH0 SWAP2 DUP3 MSTORE PUSH1 0x40 SWAP1 SWAP2 KECCAK256 DUP1 SLOAD SWAP2 DUP2 ADD SLOAD PUSH1 0x2 DUP3 ADD SLOAD PUSH1 0x3 DUP4 ADD SLOAD PUSH1 0x4 SWAP1 SWAP4 ADD SLOAD PUSH1 0x1 PUSH1 0x1 PUSH1 0xA0 SHL SUB SWAP3 DUP4 AND SWAP4 SWAP2 SWAP1 SWAP3 AND SWAP2 PUSH1 0xFF AND DUP6 JUMP JUMPDEST PUSH1 0x40 MLOAD PUSH2 0x7A SWAP6 SWAP5 SWAP4 SWAP3 SWAP2 SWAP1 PUSH2 0x550 JUMP JUMPDEST PUSH1 0x2 SLOAD PUSH2 0x107 SWAP1 PUSH1 0x1 PUSH1 0x1 PUSH1 0xA0 SHL SUB AND DUP2 JUMP JUMPDEST PUSH1 0x40 MLOAD PUSH1 0x1 PUSH1 0x1 PUSH1 0xA0 SHL SUB SWAP1 SWAP2 AND DUP2 MSTORE PUSH1 0x20 ADD PUSH2 0x7A JUMP JUMPDEST PUSH2 0x96 PUSH2 0x12D CALLDATASIZE PUSH1 0x4 PUSH2 0x5A1 JUMP JUMPDEST PUSH2 0x315 JUMP JUMPDEST PUSH0 DUP2 DUP2 MSTORE PUSH1 0x1 PUSH1 0x20 MSTORE PUSH1 0x40 DUP2 KECCAK256 SWAP1 PUSH1 0x4 DUP3 ADD SLOAD PUSH1 0xFF AND PUSH1 0x2 DUP2 GT ISZERO PUSH2 0x159 JUMPI PUSH2 0x159 PUSH2 0x53C JUMP JUMPDEST EQ PUSH2 0x1AB JUMPI PUSH1 0x40 MLOAD PUSH3 0x461BCD PUSH1 0xE5 SHL DUP2 MSTORE PUSH1 0x20 PUSH1 0x4 DUP3 ADD MSTORE PUSH1 0x1F PUSH1 0x24 DUP3 ADD MSTORE PUSH32 0x456C2074726162616A6F207961206E6F20657374612070656E6469656E746500 PUSH1 0x44 DUP3 ADD MSTORE PUSH1 0x64 ADD JUMPDEST PUSH1 0x40 MLOAD DUP1 SWAP2 SUB SWAP1 REVERT JUMPDEST PUSH1 0x1 DUP2 ADD SLOAD PUSH1 0x1 PUSH1 0x1 PUSH1 0xA0 SHL SUB AND CALLER EQ PUSH2 0x22D JUMPI PUSH1 0x40 MLOAD PUSH3 0x461BCD PUSH1 0xE5 SHL DUP2 MSTORE PUSH1 0x20 PUSH1 0x4 DUP3 ADD MSTORE PUSH1 0x27 PUSH1 0x24 DUP3 ADD MSTORE PUSH32 0x536F6C6F20656C2070726F647563746F72207075656465206C69626572617220 PUSH1 0x44 DUP3 ADD MSTORE PUSH32 0x656C207061676F00000000000000000000000000000000000000000000000000 PUSH1 0x64 DUP3 ADD MSTORE PUSH1 0x84 ADD PUSH2 0x1A2 JUMP JUMPDEST PUSH1 0x4 DUP2 DUP2 ADD DUP1 SLOAD PUSH1 0xFF NOT AND PUSH1 0x1 OR SWAP1 SSTORE PUSH1 0x2 DUP1 SLOAD SWAP1 DUP4 ADD SLOAD PUSH1 0x3 DUP5 ADD SLOAD PUSH1 0x40 MLOAD PUSH4 0xA9059CBB PUSH1 0xE0 SHL DUP2 MSTORE PUSH1 0x1 PUSH1 0x1 PUSH1 0xA0 SHL SUB SWAP3 DUP4 AND SWAP5 DUP2 ADD SWAP5 SWAP1 SWAP5 MSTORE PUSH1 0x24 DUP5 ADD MSTORE AND SWAP1 PUSH4 0xA9059CBB SWAP1 PUSH1 0x44 ADD PUSH1 0x20 PUSH1 0x40 MLOAD DUP1 DUP4 SUB DUP2 PUSH0 DUP8 GAS CALL ISZERO DUP1 ISZERO PUSH2 0x295 JUMPI RETURNDATASIZE PUSH0 DUP1 RETURNDATACOPY RETURNDATASIZE PUSH0 REVERT JUMPDEST POP POP POP POP PUSH1 0x40 MLOAD RETURNDATASIZE PUSH1 0x1F NOT PUSH1 0x1F DUP3 ADD AND DUP3 ADD DUP1 PUSH1 0x40 MSTORE POP DUP2 ADD SWAP1 PUSH2 0x2B9 SWAP2 SWAP1 PUSH2 0x5D6 JUMP JUMPDEST PUSH2 0x311 JUMPI PUSH1 0x40 MLOAD PUSH3 0x461BCD PUSH1 0xE5 SHL DUP2 MSTORE PUSH1 0x20 PUSH1 0x4 DUP3 ADD MSTORE PUSH1 0x23 PUSH1 0x24 DUP3 ADD MSTORE PUSH32 0x46616C6C6F20616C20656E76696172205553444320616C20636F6E7472617469 PUSH1 0x44 DUP3 ADD MSTORE PUSH3 0x737461 PUSH1 0xE8 SHL PUSH1 0x64 DUP3 ADD MSTORE PUSH1 0x84 ADD PUSH2 0x1A2 JUMP JUMPDEST POP POP JUMP JUMPDEST PUSH0 DUP2 GT PUSH2 0x364 JUMPI PUSH1 0x40 MLOAD PUSH3 0x461BCD PUSH1 0xE5 SHL DUP2 MSTORE PUSH1 0x20 PUSH1 0x4 DUP3 ADD MSTORE PUSH1 0x1A PUSH1 0x24 DUP3 ADD MSTORE PUSH32 0x456C207061676F206465626520736572206D61796F7220612030000000000000 PUSH1 0x44 DUP3 ADD MSTORE PUSH1 0x64 ADD PUSH2 0x1A2 JUMP JUMPDEST PUSH0 DUP1 SLOAD SWAP1 DUP1 PUSH2 0x372 DUP4 PUSH2 0x5FC JUMP JUMPDEST SWAP2 SWAP1 POP SSTORE POP PUSH1 0x40 MLOAD DUP1 PUSH1 0xA0 ADD PUSH1 0x40 MSTORE DUP1 PUSH0 SLOAD DUP2 MSTORE PUSH1 0x20 ADD CALLER PUSH1 0x1 PUSH1 0x1 PUSH1 0xA0 SHL SUB AND DUP2 MSTORE PUSH1 0x20 ADD DUP4 PUSH1 0x1 PUSH1 0x1 PUSH1 0xA0 SHL SUB AND DUP2 MSTORE PUSH1 0x20 ADD DUP3 DUP2 MSTORE PUSH1 0x20 ADD PUSH0 PUSH1 0x2 DUP2 GT ISZERO PUSH2 0x3BF JUMPI PUSH2 0x3BF PUSH2 0x53C JUMP JUMPDEST SWAP1 MSTORE PUSH0 DUP1 SLOAD DUP2 MSTORE PUSH1 0x1 PUSH1 0x20 DUP2 DUP2 MSTORE PUSH1 0x40 SWAP3 DUP4 SWAP1 KECCAK256 DUP5 MLOAD DUP2 SSTORE SWAP1 DUP5 ADD MLOAD DUP2 DUP4 ADD DUP1 SLOAD PUSH1 0x1 PUSH1 0x1 PUSH1 0xA0 SHL SUB SWAP3 DUP4 AND PUSH32 0xFFFFFFFFFFFFFFFFFFFFFFFF0000000000000000000000000000000000000000 SWAP2 DUP3 AND OR SWAP1 SWAP2 SSTORE SWAP4 DUP6 ADD MLOAD PUSH1 0x2 DUP1 DUP5 ADD DUP1 SLOAD SWAP3 SWAP1 SWAP4 AND SWAP2 SWAP1 SWAP6 AND OR SWAP1 SSTORE PUSH1 0x60 DUP5 ADD MLOAD PUSH1 0x3 DUP3 ADD SSTORE PUSH1 0x80 DUP5 ADD MLOAD PUSH1 0x4 DUP3 ADD DUP1 SLOAD SWAP3 SWAP5 SWAP2 SWAP4 SWAP1 SWAP3 PUSH1 0xFF NOT AND SWAP2 DUP5 SWAP1 DUP2 GT ISZERO PUSH2 0x45A JUMPI PUSH2 0x45A PUSH2 0x53C JUMP JUMPDEST MUL OR SWAP1 SSTORE POP POP PUSH1 0x2 SLOAD PUSH1 0x40 MLOAD PUSH4 0x23B872DD PUSH1 0xE0 SHL DUP2 MSTORE CALLER PUSH1 0x4 DUP3 ADD MSTORE ADDRESS PUSH1 0x24 DUP3 ADD MSTORE PUSH1 0x44 DUP2 ADD DUP5 SWAP1 MSTORE PUSH1 0x1 PUSH1 0x1 PUSH1 0xA0 SHL SUB SWAP1 SWAP2 AND SWAP2 POP PUSH4 0x23B872DD SWAP1 PUSH1 0x64 ADD PUSH1 0x20 PUSH1 0x40 MLOAD DUP1 DUP4 SUB DUP2 PUSH0 DUP8 GAS CALL ISZERO DUP1 ISZERO PUSH2 0x4B5 JUMPI RETURNDATASIZE PUSH0 DUP1 RETURNDATACOPY RETURNDATASIZE PUSH0 REVERT JUMPDEST POP POP POP POP PUSH1 0x40 MLOAD RETURNDATASIZE PUSH1 0x1F NOT PUSH1 0x1F DUP3 ADD AND DUP3 ADD DUP1 PUSH1 0x40 MSTORE POP DUP2 ADD SWAP1 PUSH2 0x4D9 SWAP2 SWAP1 PUSH2 0x5D6 JUMP JUMPDEST PUSH2 0x311 JUMPI PUSH1 0x40 MLOAD PUSH3 0x461BCD PUSH1 0xE5 SHL DUP2 MSTORE PUSH1 0x20 PUSH1 0x4 DUP3 ADD MSTORE PUSH1 0x1E PUSH1 0x24 DUP3 ADD MSTORE PUSH32 0x46616C6C6F206C61207472616E73666572656E63696120646520555344430000 PUSH1 0x44 DUP3 ADD MSTORE PUSH1 0x64 ADD PUSH2 0x1A2 JUMP JUMPDEST PUSH0 PUSH1 0x20 DUP3 DUP5 SUB SLT ISZERO PUSH2 0x535 JUMPI PUSH0 DUP1 REVERT JUMPDEST POP CALLDATALOAD SWAP2 SWAP1 POP JUMP JUMPDEST PUSH4 0x4E487B71 PUSH1 0xE0 SHL PUSH0 MSTORE PUSH1 0x21 PUSH1 0x4 MSTORE PUSH1 0x24 PUSH0 REVERT JUMPDEST DUP6 DUP2 MSTORE PUSH1 0x1 PUSH1 0x1 PUSH1 0xA0 SHL SUB DUP6 DUP2 AND PUSH1 0x20 DUP4 ADD MSTORE DUP5 AND PUSH1 0x40 DUP3 ADD MSTORE PUSH1 0x60 DUP2 ADD DUP4 SWAP1 MSTORE PUSH1 0xA0 DUP2 ADD PUSH1 0x3 DUP4 LT PUSH2 0x591 JUMPI PUSH4 0x4E487B71 PUSH1 0xE0 SHL PUSH0 MSTORE PUSH1 0x21 PUSH1 0x4 MSTORE PUSH1 0x24 PUSH0 REVERT JUMPDEST DUP3 PUSH1 0x80 DUP4 ADD MSTORE SWAP7 SWAP6 POP POP POP POP POP POP JUMP JUMPDEST PUSH0 DUP1 PUSH1 0x40 DUP4 DUP6 SUB SLT ISZERO PUSH2 0x5B2 JUMPI PUSH0 DUP1 REVERT JUMPDEST DUP3 CALLDATALOAD PUSH1 0x1 PUSH1 0x1 PUSH1 0xA0 SHL SUB DUP2 AND DUP2 EQ PUSH2 0x5C8 JUMPI PUSH0 DUP1 REVERT JUMPDEST SWAP5 PUSH1 0x20 SWAP4 SWAP1 SWAP4 ADD CALLDATALOAD SWAP4 POP POP POP JUMP JUMPDEST PUSH0 PUSH1 0x20 DUP3 DUP5 SUB SLT ISZERO PUSH2 0x5E6 JUMPI PUSH0 DUP1 REVERT JUMPDEST DUP2 MLOAD DUP1 ISZERO ISZERO DUP2 EQ PUSH2 0x5F5 JUMPI PUSH0 DUP1 REVERT JUMPDEST SWAP4 SWAP3 POP POP POP JUMP JUMPDEST PUSH0 PUSH1 0x1 DUP3 ADD PUSH2 0x619 JUMPI PUSH4 0x4E487B71 PUSH1 0xE0 SHL PUSH0 MSTORE PUSH1 0x11 PUSH1 0x4 MSTORE PUSH1 0x24 PUSH0 REVERT JUMPDEST POP PUSH1 0x1 ADD SWAP1 JUMP INVALID LOG2 PUSH5 0x6970667358 0x22 SLT KECCAK256 PUSH26 0x4D667F9A61BEB0BB9D8F1C9C6B04F6112DC6CBD3BA546641F55 0x4D 0xB4 PUSH5 0xD92764736F PUSH13 0x63430008190033000000000000 "
    },
    "gasEstimates": {
      "creation": {
        "codeDepositCost": "324400",
        "executionCost": "infinite",
        "totalCost": "infinite"
      },
      "external": {
        "contadorTrabajos()": "2283",
        "crearTrabajo(address,uint256)": "infinite",
        "finalizarTrabajo(uint256)": "infinite",
        "monedaStable()": "2358",
        "trabajos(uint256)": "11107"
      }
    },
    "methodIdentifiers": {
      "contadorTrabajos()": "5d6e7cb7",
      "crearTrabajo(address,uint256)": "c2f02816",
      "finalizarTrabajo(uint256)": "61124159",
      "monedaStable()": "8fea408e",
      "trabajos(uint256)": "718860f4"
    }
  },
  "storageLayout": {
    "storage": [
      {
        "astId": 40,
        "contract": "AgroHectareas.sol:AgrocilitiesEscrowUSDC",
        "label": "contadorTrabajos",
        "offset": 0,
        "slot": "0",
        "type": "t_uint256"
      },
      {
        "astId": 45,
        "contract": "AgroHectareas.sol:AgrocilitiesEscrowUSDC",
        "label": "trabajos",
        "offset": 0,
        "slot": "1",
        "type": "t_mapping(t_uint256,t_struct(Trabajo)38_storage)"
      },
      {
        "astId": 48,
        "contract": "AgroHectareas.sol:AgrocilitiesEscrowUSDC",
        "label": "monedaStable",
        "offset": 0,
        "slot": "2",
        "type": "t_contract(IERC20)22"
      }
    ],
    "types": {
      "t_address": {
        "encoding": "inplace",
        "label": "address",
        "numberOfBytes": "20"
      },
      "t_contract(IERC20)22": {
        "encoding": "inplace",
        "label": "contract IERC20",
        "numberOfBytes": "20"
      },
      "t_enum(Estado)26": {
        "encoding": "inplace",
        "label": "enum AgrocilitiesEscrowUSDC.Estado",
        "numberOfBytes": "1"
      },
      "t_mapping(t_uint256,t_struct(Trabajo)38_storage)": {
        "encoding": "mapping",
        "key": "t_uint256",
        "label": "mapping(uint256 => struct AgrocilitiesEscrowUSDC.Trabajo)",
        "numberOfBytes": "32",
        "value": "t_struct(Trabajo)38_storage"
      },
      "t_struct(Trabajo)38_storage": {
        "encoding": "inplace",
        "label": "struct AgrocilitiesEscrowUSDC.Trabajo",
        "members": [
          {
            "astId": 28,
            "contract": "AgroHectareas.sol:AgrocilitiesEscrowUSDC",
            "label": "id",
            "offset": 0,
            "slot": "0",
            "type": "t_uint256"
          },
          {
            "astId": 30,
            "contract": "AgroHectareas.sol:AgrocilitiesEscrowUSDC",
            "label": "productor",
            "offset": 0,
            "slot": "1",
            "type": "t_address"
          },
          {
            "astId": 32,
            "contract": "AgroHectareas.sol:AgrocilitiesEscrowUSDC",
            "label": "contratista",
            "offset": 0,
            "slot": "2",
            "type": "t_address"
          },
          {
            "astId": 34,
            "contract": "AgroHectareas.sol:AgrocilitiesEscrowUSDC",
            "label": "monto",
            "offset": 0,
            "slot": "3",
            "type": "t_uint256"
          },
          {
            "astId": 37,
            "contract": "AgroHectareas.sol:AgrocilitiesEscrowUSDC",
            "label": "estado",
            "offset": 0,
            "slot": "4",
            "type": "t_enum(Estado)26"
          }
        ],
        "numberOfBytes": "160"
      },
      "t_uint256": {
        "encoding": "inplace",
        "label": "uint256",
        "numberOfBytes": "32"
      }
    }
  },
  "userdoc": {
    "kind": "user",
    "methods": {},
    "version": 1
  }
}